:100000000C9461000C94C9010C94A2010C947E0024
:100010000C947E000C947E000C94F0010C947E00F5
:100020000C947E000C947E000C947E000C947E0058
:100030000C947E000C947E000C947E000C947E0048
:100040000C9458010C947E000C947E000C947E005D
:100050000C947E000C947E000C947E000C947E0028
:100060000C947E000C947E00000000002400270009
:100070002A0000000000250028002B0000000000DE
:1000800023002600290004040404040404040202DA
:100090000202020203030303030301020408102007
:1000A0004080010204081020010204081020000012
:1000B0000008000201000003040700000000000027
:1000C000000011241FBECFEFD8E0DEBFCDBF11E08E
:1000D000A0E0B1E0E4E3FAE002C005900D92A430A4
:1000E000B107D9F721E0A4E0B1E001C01D92A13130
:1000F000B207E1F70E94FA010C9418050C94000075
:100100000895833081F028F4813099F08230A9F08D
:1001100008958730A9F08830C9F08430B1F4809117
:1001200080008F7D03C0809180008F778093800056
:10013000089584B58F7784BD089584B58F7DFBCFF6
:100140008091B0008F778093B00008958091B000C7
:100150008F7DF9CFCF93DF93282F30E0F901E2555F
:10016000FF4F8491F901E656FF4FD491F901EA5708
:10017000FF4FC491CC23A1F081110E948100EC2F8C
:10018000F0E0EE0FFF1FE458FF4FA591B491EC9102
:10019000ED2381E090E009F480E0DF91CF910895B4
:1001A00080E090E0FACF1F93CF93DF93282F30E0C9
:1001B000F901E255FF4F8491F901E656FF4FD491C2
:1001C000F901EA57FF4FC491CC23A9F0162F8111F2
:1001D0000E948100EC2FF0E0EE0FFF1FEE58FF4F62
:1001E000A591B4918FB7F894EC91111108C0D095F6
:1001F000DE23DC938FBFDF91CF911F910895DE2B1B
:10020000F8CFCF93DF9390E0FC01E656FF4F2491A7
:100210008A579F4FFC0184918823D1F090E0880F8A
:10022000991FFC01E859FF4FA591B491FC01EE58CC
:10023000FF4FC591D49161110EC09FB7F8948C9176
:10024000E22FE0958E238C932881E223E8839FBFE1
:10025000DF91CF9108958FB7F894EC91E22BEC9356
:100260008FBFF6CF3FB7F8948091090190910A01B2
:10027000A0910B01B0910C0126B5A89B05C02F3FA2
:1002800019F00196A11DB11D3FBFBA2FA92F982FBC
:100290008827BC01CD01620F711D811D911D42E0B7
:1002A000660F771F881F991F4A95D1F70895089503
:1002B0001F920F920FB60F9211242F933F938F939B
:1002C0009F93AF93BF938091050190910601A091F8
:1002D0000701B09108013091040123E0230F2D376D
:1002E00058F50196A11DB11D2093040180930501CD
:1002F00090930601A0930701B09308018091090132
:1003000090910A01A0910B01B0910C010196A11DE1
:10031000B11D8093090190930A01A0930B01B09342
:100320000C01BF91AF919F918F913F912F910F90B1
:100330000FBE0F901F90189526E8230F0296A11D5F
:10034000B11DD2CF1F920F920FB60F9211242F938F
:100350003F934F935F936F937F938F939F93AF934D
:10036000BF93EF93FF93E0910201F0910301099590
:10037000FF91EF91BF91AF919F918F917F916F917D
:100380005F914F913F912F910F900FBE0F901F9053
:1003900018951F920F920FB60F9211242F933F932F
:1003A0004F935F936F937F938F939F93AF93BF937D
:1003B000EF93FF93E0910001F09101010995FF9106
:1003C000EF91BF91AF919F918F917F916F915F91CD
:1003D0004F913F912F910F900FBE0F901F90189546
:1003E0001F920F920FB60F9211240F900FBE0F9015
:1003F0001F901895789484B5826084BD84B581601F
:1004000084BD85B5826085BD85B5816085BD8091DF
:100410006E00816080936E00109281008091810057
:10042000826080938100809181008160809381004F
:10043000809180008160809380008091B100846011
:100440008093B1008091B00081608093B000809172
:100450007A00846080937A0080917A008260809331
:100460007A0080917A00816080937A0080917A008E
:10047000806880937A001092C100D0E0C0E0C23062
:10048000D10521F061E08C2F0E9401012196C43139
:10049000D105A9F780E890E09093010180930001D5
:1004A000809169008C7F826080936900E89A61E0A6
:1004B00083E00E94010161E087E00E94010161E0A8
:1004C00086E00E94010161E085E00E94010161E097
:1004D00084E00E94010160E088E00E94010160E088
:1004E00089E00E94010160E08AE00E94010160E071
:1004F0008BE00E94010180917A008F7780937A00CF
:1005000088E18093600081E28093600080916000C8
:1005100080648093600083B7846083BF83B7816009
:1005200083BFC0E0D0E061E083E00E94D3000E947E
:1005300032014B015C0188EEC82E83E0D82EE12CFD
:10054000F12C0E943201681979098A099B09683ED9
:10055000734081059105A8F321E0C21AD108E10892
:10056000F10838EE830E33E0931EA11CB11CC114B8
:10057000D104E104F10429F760E083E00E94D30094
:1005800080917A00806880937A0089E00E94AA00B6
:100590008C0188E00E94AA0041E050E0012B11F09C
:1005A00050E040E021E030E0892B11F030E020E025
:1005B000429F8001439F100D529F100D11248BE02C
:1005C0000E94AA006C018AE00E94AA00C89E7001E5
:1005D000C99EF00CD89EF00C112489E00E94AA005C
:1005E00021E030E0892B11F030E020E02E9DC001A9
:1005F0002F9D900D3E9D900D1124080F191F8BE02B
:100600000E94AA007C018AE00E94AA0041E050E01A
:10061000EF2811F050E040E021E030E0892B11F0AC
:1006200030E020E0429F7001439FF00C529FF00C9D
:10063000112489E00E94AA0021E030E0892B11F00A
:1006400030E020E02E9DC0012F9D900D3E9D900D2D
:100650001124080F191F8BE00E94AA006C018AE088
:100660000E94AA0021E030E0892B11F030E020E068
:100670002C9D70012D9DF00C3C9DF00C112488E008
:100680000E94AA0021E030E0892B11F030E020E048
:100690002E9DC0012F9D900D3E9D900D1124080FA1
:1006A000191F8BE00E94AA007C0189E00E94AA0029
:1006B00021E030E0EF2811F030E020E0289F7001C9
:1006C000299FF00C389FF00C112488E00E94AA00AA
:1006D0009C01E29EC001E39E900DF29E900D1124BC
:1006E000800F911FEE24E394892B09F4E12CE09212
:1006F00010018BE00E94AA006C018AE00E94AA000F
:10070000C89E8001C99E100DD89E100D11248BE04B
:100710000E94AA006C0188E00E94AA0021E030E05B
:10072000892B11F030E020E02C9DC0012D9D900D13
:100730003C9D900D1124080F191F8AE00E94AA0009
:100740006C0189E00E94AA0021E030E0CD2811F080
:1007500030E020E0289F6001299FD00C389FD00C0A
:10076000112488E00E94AA009C01C29EC001C39E81
:10077000900DD29E900D1124800F911FFF24F394B1
:10078000892B09F4F12CF0920F018BE00E94AA0052
:100790008C018AE00E94AA0021E030E0892B11F050
:1007A00030E020E0209F6001219FD00C309FD00CD2
:1007B000112488E00E94AA00C89E8001C99E100DE5
:1007C000D89E100D11248BE00E94AA006C0189E0D4
:1007D0000E94AA0041E050E0CD2811F050E040E036
:1007E00021E030E0892B11F030E020E0429F6001F1
:1007F000439FD00C529FD00C112488E00E94AA0085
:1008000021E030E0892B11F030E020E02C9DC00188
:100810002D9D900D3C9D900D1124080F191F8BE00C
:100820000E94AA006C018AE00E94AA00C89E5001A2
:10083000C99EB00CD89EB00C112489E00E94AA0079
:10084000A89E6001A99ED00CB89ED00C112488E00F
:100850000E94AA0021E030E0892B11F030E020E076
:100860002C9DC0012D9D900D3C9D900D1124800F5D
:10087000911F01E0892B09F400E000930E018BE049
:100880000E94AA006C018AE00E94AA00C89E500142
:10089000C99EB00CD89EB00C112489E00E94AA0019
:1008A00021E030E0892B11F030E020E02A9D60014A
:1008B0002B9DD00C3A9DD00C11248BE00E94AA00F5
:1008C0004C018AE00E94AA0021E030E0892B11F05F
:1008D00030E020E0289D5001299DB00C389DB00CDF
:1008E000112489E00E94AA009C01A29EC001A39E3F
:1008F000900DB29E900D1124C80ED91E8BE00E945F
:10090000AA005C018AE00E94AA0021E030E0AB2846
:1009100011F030E020E0289F5001299FB00C389F53
:10092000B00C112489E00E94AA009C01A29EC00183
:10093000A39E900DB29E900D1124C80ED91E8AE080
:100940000E94AA004C0189E00E94AA0021E030E048
:10095000892B11F030E020E0289D5001299DB00C3A
:10096000389DB00C112488E00E94AA009C01A29E30
:10097000C001A39E900DB29E900D1124C80ED91EE9
:100980008AE00E94AA005C0189E00E94AA0041E07E
:1009900050E0AB2811F050E040E021E030E0892B3E
:1009A00011F030E020E0429F5001439FB00C529F75
:1009B000B00C112488E00E94AA0021E030E0892BCD
:1009C00011F030E020E02A9DC0012B9D900D3A9D52
:1009D000900D1124C80ED91E11E0CD2809F410E0A5
:1009E00010930D016E2D84E00E94D3006F2D85E0E1
:1009F0000E94D300602F86E00E94D300612F87E021
:100A00000E94D30085B7806685BF85B78F798064E3
:100A100085BF889585B7806685BF85B78F798064E7
:100A200085BF8895209709F47ECD0E9400007BCD7C
:040A3000F894FFCF68
:040A3400570157010E
:00000001FF
